:020000040800F2
:10000000B8120220790200088D1800083513000884
:100010008918000869050008132B0008000000007B
:10002000000000000000000000000000C101000806
:10003000F90F000800000000150200081D2100084B
:100040009D0200089D0200089D0200089D02000814
:100050009D0200089D0200082910000855100008A4
:100060009D0200089D0200089D0200089D020008F4
:100070009D0200089D0200089D0200089D020008E4
:100080009D020008010C00089D0200089D02000866
:100090006D0500089D0200089D020008711000080F
:1000A0009D0200089D0200089D0200089D020008B4
:1000B0009D020008952100089D0200089D0200088D
:1000C0009D0200089D0200089D0200089D02000894
:1000D0009D020008E92300089D020008CD240008C5
:1000E0009D0200089D0200089D0200089D02000874
:1000F0009D0200089D0200089D0200089D02000864
:100100009D0200089D0200089D0200089D02000853
:100110009D0200089D0200089D0200089D02000843
:100120009D0200089D0200089D0200089D02000833
:100130009D0200089D0200089D0200089D02000823
:100140009D020008110700089D0200089D0200089A
:10015000350C00089D0200089D0200080D260008CD
:100160009D0200089D0200089D0200089D020008F3
:100170009D0200089D0200089D020008000000008A
:100180009D0200089D0200089D0200089D020008D3
:100190009D0200089D0200089D0200089D020008C3
:1001A00000000000000000009D020008DFF80CD0F5
:1001B00000F0A0F80048004765320008B81202209D
:1001C0002A4B19680868B0E8F04F80F30988BFF33C
:1001D0006F8F4FF0000080F311887047000000001F
:1001E00006480068006880F3088862B661B6BFF30D
:1001F0004F8FBFF36F8F00DF00BF00BF08ED00E03F
:10020000DFF80C00016841F470010160704700BF25
:1002100088ED00E0EFF30980BFF36F8F134B1A688E
:100220001EF0100F08BF20ED108A20E9F04F10607B
:1002300008B44FF0500080F31188BFF34F8FBFF325
:100240006F8F04F04FFB4FF0000080F3118808BC63
:1002500019680868B0E8F04F1EF0100F08BFB0EC46
:10026000108A80F30988BFF36F8F70472400002045
:10027000EFF30580704700000948016841F4700100
:1002800001600848804708480047FEE7FEE7FEE7B0
:10029000FEE7FEE7FEE7FEE7FEE7FEE7FEE700001B
:1002A00088ED00E02D210008AD01000840EA0103BF
:1002B0009B0703D009E008C9121F08C0042AFAD21C
:1002C00003E011F8013B00F8013B521EF9D27047E0
:1002D000D2B201E000F8012B491EFBD27047002288
:1002E000F6E710B513460A4604461946FFF7F0FF35
:1002F000204610BD064C074D06E0E06840F00103C3
:1003000094E8070098471034AC42F6D3FFF752FF49
:100310002C5900084C59000870B58C1810F8015B76
:1003200015F0070301D110F8013B2A1106D110F88E
:10033000012B03E010F8016B01F8016B5B1EF9D192
:100340002B0705D40023521E0DD401F8013BFAE718
:1003500010F8013BCB1A921C03E013F8015B01F883
:10036000015B521EF9D5A142D8D3002070BD21B146
:10037000826842F00102826003E0826822F001029A
:10038000826070470021084A1168084A1140D0E98C
:1003900000231A4383681A43C3681A431143044A6B
:1003A000C2F804137047000004230140E030FCFF52
:1003B0000020014030B50246002000235068104C58
:1003C00020400D790C6844EA052420435060906871
:1003D0000C4C2040D1E903542C438D682C434D79BB
:1003E00044EA450420439060D06A20F470000C7DFC
:1003F000641EE4B2234340EA0350D06230BD0000E3
:10040000FFFEFFFCFDF7FFC0F0B504460D460020DF
:100410000021092D11DDE068A5F10A0606EB46076B
:10042000072606FA07F18843A5F10A0606EB4606F9
:1004300003FA06F10843E0600CE0206905EB45078C
:10044000072606FA07F1884305EB450603FA06F18D
:1004500008432061072A0FDA606B561E06EB8607F9
:100460001F2606FA07F18843561E06EB860605FA94
:1004700006F10843606322E00D2A0FDA206BD61FD5
:1004800006EB86071F2606FA07F18843D61F06EB00
:10049000860605FA06F10843206310E0E06AA2F13F
:1004A0000D0606EB86071F2606FA07F18843A2F120
:1004B0000D0606EB860605FA06F10843E062F0BD7C
:1004C00038B10849096841F40001074AC2F8041329
:1004D00006E00449096821F40001034AC2F8041344
:1004E0007047000004230140002001400EB54FF486
:1004F000407001F009FA4FF47A7002F077FC02F0D4
:1005000067FE02F03DFE03F035FE00F049FD5A2182
:1005100047F2305002F0B0FB02F00EFF03F0A6FDF0
:1005200001F008FC00F0B4FD01F0FEFF01F056F907
:100530004FF4E13002F01EF94FF4E13000F050FFCB
:1005400011201421054A4FF00063CDE900210290EB
:10055000034A0449081F00F0EFFE0EBD700D022093
:10056000A06002400444004000BFFEE710B5022135
:10057000084800F063F958B10221064800F00AF972
:10058000054A0021034800F0E9F9034800F006F8A5
:1005900010BD0000006400402406022030B504466F
:1005A000607A022800D130BD40F201622068811AD1
:1005B000904240D013DCB0F5017F22D007DCA0F2DE
:1005C0000120D8B101281AD0022827D118E0A0F2C2
:1005D000052020B3A0F2FB300028F6D124E010293A
:1005E0004BD006DC01292DD0022932D00F29ECD1C5
:1005F00036E0112957D012297FD16AE000BF00BF31
:1006000000BF2078401E3E490870097801EB810147
:100610003C4A02EBC100214602F082FC6DE021461B
:10062000394802F0E9FC68E0207BE17A40EA0125E4
:100630003648058061E0207BE17A40EA01253348B5
:1006400045805AE0207BE17A40EA01252F488580E9
:1006500053E0207BE17A40EA01252C48C5804CE03C
:10066000207BE17A40EA012528480581A17B607B57
:1006700041EA0025254845813FE0207BE17A40EAB8
:10068000012528B221490882A17B607B41EA00252F
:1006900028B21E498881217CE07B41EA002528B2EE
:1006A0001A49C88129E0207BE17A40EA012528B275
:1006B0001649C882A17B607B41EA002528B2134914
:1006C0004882217CE07B41EA002528B20F498882DC
:1006D00013E0207BE17A40EA012528B20B49088328
:1006E000A17B607B41EA002508484583217CE07BB3
:1006F00041EA00250548858300BF00BF00BF52E7DF
:10070000CC0000209C0602204C060220C4070220D8
:1007100010B51021084800F091F858B11021064892
:1007200000F038F8054A0121034800F017F90348A2
:1007300000F006F810BD00000068004038060220F6
:1007400010B504462068A0F2012050B101280DD058
:10075000022811D0052814D121460B4802F04CFC88
:1007600010E02146094802F047FC0BE0214607480B
:10077000283802F041FC05E02146054802F03CFC27
:1007800000E000BF00BF10BD740602206407022015
:100790008C070220B1F5007F3AD00FDC202928D049
:1007A00006DC01291CD004291DD0082940D11DE0F8
:1007B000402921D0B1F5807F3AD126E0B1F5004F34
:1007C00031D006DCB1F5806F25D0B1F5006F2FD1A7
:1007D00024E0B1F5803F12D0B1F5003F28D111E0FF
:1007E000154A826025E00822C26022E01022C26021
:1007F0001FE0082202611CE01022026119E00822B9
:10080000426016E01022426013E00422426010E0D1
:10081000042242600DE0042242600AE0002282616C
:100820000422426005E0002282610422426000E06E
:1008300000BF00BF704700000101010070B5044611
:100840000D46002660692840002871D0B5F5807FEC
:100850005CD010DC082D35D006DC012D20D0022D17
:1008600024D0042D72D127E0102D31D0202D35D089
:10087000402D6BD138E0B5F5004F60D009DCB5F5FF
:10088000007F49D0B5F5806F4CD0B5F5006F5DD1D4
:100890004FE0B5F5803F2DD0B5F5003F56D12FE0A4
:1008A000A0682D4900F065F9064651E0E068032193
:1008B00000F05FF906464BE0E068082100F059F9C6
:1008C000064645E0E068102100F053F906463FE097
:1008D0002069032100F04DF9064639E0206908211E
:1008E00000F047F9064633E02069102100F041F995
:1008F00006462DE06068082100F03BF9064627E037
:100900006068102100F035F9064621E0A069012158
:1009100000F02FF906461BE0A069022100F029F93A
:10092000064615E0A069042100F023F906460FE011
:100930000FE0A069702100F01CF9064608E060682D
:10094000042100F016F9064602E0FFE7002600BF8A
:1009500000E00026304670BD0101010010B500F531
:10096000D87303EB01131B6803F004031372137AAB
:1009700053B900F5D87303EB01131B6840F2FF7401
:1009800004EA5353136009E000F5D87303EB011335
:100990001B686FF0604404EAD303536000F5D8731A
:1009A00003EB01131B6803F00203537200F5D873C5
:1009B00003EB01135B6803F00F03937200F5D87328
:1009C00003EB01135B681B0AD37400F5D87303EBC8
:1009D00001139B68D37200F5D87303EB01139B6876
:1009E0001C0A147300F5D87303EB01139B681C0CED
:1009F000547300F5D87303EB01139B681B0E9373BC
:100A000000F5D87303EB0113DB68D37300F5D873DB
:100A100003EB0113DB681C0A147400F5D87303EBB5
:100A20000113DB681C0C547400F5D87303EB01133D
:100A3000DB681B0E937421B9C36843F02003C360C5
:100A400003E0036943F02003036110BD10B50246C3
:100A50000020936803F08063B3F1806F00D110E051
:100A6000936803F00063B3F1006F01D1012008E047
:100A7000936803F08053B3F1805F01D1022000E05E
:100A80000420042874D002F5C07303EB00131B6824
:100A900003F0010402F5C07303EB00131C600B7A32
:100AA0007BB94B7A0C8843EA445302F5C07404EBDB
:100AB00000142468234302F5C07404EB001423607F
:100AC00010E00B7A4C6843EAC4034C7A234302F5E6
:100AD000C07404EB00142468234302F5C07404EBD3
:100AE000001423608B7A03F00F038B7202F5C0733E
:100AF00003EB00135B6823F00F0402F5C07303EBF4
:100B000000135C6002F5C07303EB00135B688C7A22
:100B1000234302F5C07404EB001463608B7B1C0656
:100B20004B7B44EA03440B7B44EA0323CC7A234304
:100B300002F5C07404EB0014A3608B7C1C064B7C94
:100B400044EA03440B7C44EA0323CC7B234302F5B1
:100B5000C07404EB0014E36002F5C07303EB0013F0
:100B60001B6843F0010402F5C07303EB00131C6023
:100B700010BD0246002002EA01030BB1012000E093
:100B80000020704739B1084A1268012383401A4394
:100B9000054B1A6006E0044A1268012383409A4319
:100BA000014B1A60704700000074004030B500220D
:100BB00000230A4C226840F6FE748440A243D1E927
:100BC00000452C438D682C43CD6844EA050303FAA5
:100BD00000F42243014C226030BD0000007400404C
:100BE00008B500220092054A009200F10802009B1D
:100BF0001A440092009A116008BD00000074004081
:100C000010B50949094800F05DF958B1064907488F
:100C100000F03CF80021054800F06CF80449034856
:100C200000F04EF810BD000000002020A06002403F
:100C30000080202010B51049104800F043F9C8B1D9
:100C40000D490E4800F022F802F038FB04F080FA5B
:100C500001280FD00A490B48006803F0CDFC084872
:100C6000006838B14FF0805007490860BFF34F8FDC
:100C7000BFF36F8F10BD00000008002088640240A1
:100C80004C020020B801002004ED00E00246094BB0
:100C90009A4201D2084801E00648103801F000539A
:100CA0001BB1064B0B40C36002E0044B0B4083605A
:100CB0007047000010640240006002407D0F7D0F0D
:100CC0000246094B9A4201D2084801E00648103812
:100CD00001F000531BB1064B0B40C36002E0044B14
:100CE0000B408360704700001064024000600240C7
:100CF0007D0F7D0F21B1026842F00102026003E026
:100D0000026822F00102026070470000016821F0D1
:100D1000010101600021016041608160C1600161E9
:100D2000212141614A49884204D13D21484A103A73
:100D300091608CE046491831884205D14FF47461C6
:100D4000434A103A916082E041493031884205D1EE
:100D50004FF474113E4A103A916078E03C494831B2
:100D6000884205D14FF07461394A103A91606EE0C3
:100D700037496031884204D13649354A103AD1604A
:100D800065E033497831884204D13349304A103A1A
:100D9000D1605CE02E499031884204D12F492C4A21
:100DA000103AD16053E02A49A831884205D14FF06A
:100DB0003D51274A103AD16049E02949884204D17F
:100DC0003D21274A083A116041E0254918318842FF
:100DD00005D14FF47461224A083A116037E0204986
:100DE0003031884205D14FF474111D4A083A116020
:100DF0002DE01B494831884205D14FF07461184AF3
:100E0000083A116023E016496031884204D1114943
:100E1000134A121F11601AE011497831884204D137
:100E20000D490F4A121F116011E00D49903188429F
:100E300004D10A490A4A121F116008E00849A83182
:100E4000884204D14FF03D51054A121F116070478E
:100E5000106002403D000020400F002000003D20B7
:100E60001064024021B1026842F48022026003E073
:100E7000026822F480220260704722B1036843F4C2
:100E80000023036003E0036823F40023036001618F
:100E90007047014600200A6802F001020AB10120F1
:100EA00000E0002070470146486880B27047014664
:100EB00000200A6802F400220AB1012000E00020AC
:100EC0007047000030B503460A46002000240B4D51
:100ED000AB4201D20A4901E00849103902F000553D
:100EE0000DB14C6800E00C68064D2C4004EA020588
:100EF0000DB1012000E0002030BD00001064024070
:100F0000006002407D0F7D0F10B501F080034BB1F2
:100F100022B1436943F08003436103E0436923F056
:100F20008003436180290BD02AB1036801F01E04BD
:100F30002343036004E0036801F01E04A34303603D
:100F400010BD000010B500220268134B1A40CC6897
:100F50000B6823434C6923438C692343CC692343A7
:100F60000C6A23434C6A23438C6A23434C6B234310
:100F70008C6B23431A430260426922F00702D1E9D5
:100F80000B3423431A4342610B6943604B6883600F
:100F90008B68C36010BD00003F801CF0416070474B
:100FA00000B587B00121084600F0ECFC012148079C
:100FB00000F0F8FC1020059003208DF818000220A6
:100FC0008DF81B0005A90B4800F00FF900200190D7
:100FD000029003900220049001A90020FFF7E6FD93
:100FE00001210020FFF7CEFD00210846FFF7F8FDA4
:100FF00007B000BD00000240704770B504460D46C2
:1010000000212046FFF776FE00BF2046FFF741FF94
:101010000028FAD129462046FFF7C0FF01212046CB
:10102000FFF768FE70BD000010B50A2001F014FF44
:101030000121064800F044F918B90321044801F0E1
:1010400083FB012000F066F810BD000000000240A4
:10105000BD00002010B50A2001F0FEFE0221034869
:1010600000F02EF9022000F055F810BD00000240FB
:1010700010B54FF4807000F053F840B14FF4807019
:1010800000F048F802F022F9172000F011FF10BD1F
:101090000EB500F08BFB0121880300F0A3FC0121B9
:1010A000002000F077FF0021084600F073FF0220C7
:1010B000009000208DF804000C208DF80500012020
:1010C0008DF80600684600F037F801200090684669
:1010D00000F032F806208DF8080003208DF8090092
:1010E00002208DF80A0001208DF80B0002A800F004
:1010F000CFFB07208DF8080003208DF8090002209F
:101100008DF80A0001208DF80B0002A800F0C0FB4A
:101110000EBD00000149086070470000143C01400A
:1011200001460020034A12680A400AB1012000E08B
:1011300000207047143C0140002123498279002A95
:101140003AD00A46126803689A430B461A600A1D91
:10115000126803689A430B1D1A60027911440A68E9
:1011600003681A430A60184A0832126803689A43EF
:10117000154B08331A601A1D126803689A43124B04
:101180000C331A604279102A0ED11A1F12680368B4
:101190001A430D4B08331A601A1D126803681A436C
:1011A000094B0C331A600DE00749427911440A6873
:1011B00003681A430A6005E0027911440A6803686B
:1011C0009A430A6070470000003C014008B58DED6D
:1011D000000A009901700099090A41700099090CF0
:1011E00081700099090EC17008BDF0B50A46002152
:1011F0000023002400BF3DE0012505FA01F3156836
:1012000005EA03049C4234D105684F000326BE4022
:10121000B543056015794E00B54006683543056055
:101220001579012D02D01579022D16D185684F0050
:101230000326BE40B543856055794E00B5408668AB
:1012400035438560456801268E40B5434560456855
:1012500096798E40B6B235434560C5684F00032687
:10126000BE40B543C560D5794E00B540C66835432C
:10127000C560491C1029BFD3F0BDF0B50023002480
:101280004D07ED0E02FA05F3CE1000F1200555F8DA
:1012900026504E07F70E0F26BE40B543CF1000F183
:1012A000200646F82750CE1000F1200555F82650AC
:1012B00045EA0304CE1000F1200545F82640F0BDB4
:1012C0000246002013690B400BB1012000E0002012
:1012D00070474183704701837047000030B5034673
:1012E00013B94FF6FF7030BD09E013F8014B82EAE5
:1012F0000400C0B2054D35F8100080EA2222081E15
:10130000A1F10101F1D11046EDE700002C570008D2
:1013100030B5034605E013F8010B80EA02040448E7
:10132000025D081EA1F10101F5D1104630BD00009B
:101330002B56000800BFFEE72DE9F04790B00746A6
:101340000C4615461E46DDE9199ADDF860802846F0
:10135000FFF7DCFC00BF2846FFF79BFD0028FAD111
:1013600000960194CDF8088040200390CDF81090AD
:10137000002005904FF480600690002007900890B0
:1013800009904FF480300A9000200B9003200C90BD
:1013900000200D900E9069462846FFF7D3FD0AF015
:1013A000FF008DF83C0002208DF83D0004208DF8F0
:1013B0003E0001208DF83F000FA800F069FA0122DD
:1013C0008021384601F054FA00212846FFF792FCAC
:1013D000012210212846FFF797FD10B0BDE8F087E5
:1013E00010B588B004460121084600F0CBFA01216F
:1013F000480400F0D7FA0121480500F0C3FA07229B
:1014000002212248FFF739FF072203211F48FFF777
:1014100034FF0C20059002208DF8180000208DF874
:101420001A0001208DF81B0002208DF8190005A973
:101430001648FFF7DAFE01940020ADF80800ADF879
:101440000A00ADF80C00ADF810000820ADF80E0051
:1014500001A90F4801F0EAFA01210D4801F0FCF959
:10146000012240F224410A4801F0BBFA26208DF8FF
:101470001C0004208DF81D008DF81E0001208DF841
:101480001F0007A800F004FA08B010BD00000240D9
:101490000044004010B504467FE1C148008821188F
:1014A000C0480A680260097901710078A52874D1E2
:1014B000BB4909886018052101F04EFB0128F6D1CF
:1014C000B84AB2F8012002F10901B54A1288A01801
:1014D00001F022FB0128EAD1B14800882118B14867
:1014E000B1F80510C180AE480088205C401CAC49B2
:1014F00009886054AB48B0F80110A9480088093049
:101500000844A9490880A748C08840F20122811AEE
:10151000904273D016DC40F20112A0EB020190421F
:1015200060D006DC06286AD2DFE800F0691F2B389D
:101530004450012964D002296ED003297DD00429AA
:101540005DD186E0062974D005DCECD2DFE801F03D
:101550005799A5B1BDC907296CD008296BD00929B5
:101560006AD0B1F5807FEBD1F7E08E48B0F801206A
:101570008B4800882044C11D8A480830FEF796FE3B
:10158000F8E08848B0F80120854800882044C11D53
:1015900084481330FEF78AFEECE0F1E08148B0F8B1
:1015A00001207F4800882044C11D7E481430FEF78A
:1015B0007DFEDFE07B48B0F80120794800882044B8
:1015C000C11D78483430FEF771FED3E07548B0F89D
:1015D0000120734800882044C11D72483630FEF750
:1015E00065FEC7E06F48B0F801206D4800882044D0
:1015F000C11D6C484330FEF759FEBBE035E0B8E052
:101600006848B0F80120664800882044C11D65483C
:101610004730FEF74BFEADE06248B0F8012060486D
:1016200000882044C11D5F484B30FEF73FFEA1E01B
:1016300003E062E06DE078E083E05A48B0F8012012
:10164000574800882044C11D56484E30FEF72EFEF4
:1016500090E05448B0F80120514800882044C11D52
:1016600050485030FEF722FE84E04E48B0F801208A
:101670004B4800882044C11D4A485130FEF716FEF1
:1016800078E04848B0F80120454800882044C11D52
:1016900044486C30FEF70AFE6CE04248B0F8012086
:1016A0003F4800882044C11D3E487C30FEF7FEFDC7
:1016B00060E03C48B0F80120394800882044C11D52
:1016C00038488C30FEF7F2FD54E03648B0F801207F
:1016D000334800882044C11D32488D30FEF7E6FDB6
:1016E00048E03048B0F801202D4800882044C11D52
:1016F0002C488E30FEF7DAFD3CE02A48B0F8012095
:10170000274800882044C11D26488F30FEF7CEFDB3
:1017100030E02448B0F80120214800882044C11D51
:1017200020489630FEF7C2FD24E01E48B0F80120A4
:101730001B4800882044C11D1A489C30FEF7B6FDA6
:1017400018E01848B0F80120154800882044C11D51
:101750001448A030FEF7AAFD0CE01248B0F80120B2
:101760000F4800882044C11D0E48A630FEF79EFD9C
:1017700000BF00BF00BF0C4800880949088003E093
:1017800000200749088009E005480088B0F5C87FB7
:1017900003DD00200249088000E07EE600BF10BDA6
:1017A000840100209C0C0220860100201CB5012130
:1017B000084600F0E7F80320009000208DF80400B0
:1017C00003208DF8050001208DF8070069460248C6
:1017D000FFF70BFD1CBD00000000024000B58BB000
:1017E0000121082000F0DEF80121080200F0CAF80B
:1017F000022200212248FFF740FD0120099002202B
:101800008DF8280003208DF8290000208DF82A008B
:1018100001208DF82B0009A91948FFF7E6FC42F2D8
:101820002730ADF81800C82007900020ADF81A0046
:10183000192003906020ADF804000120ADF80600E7
:101840000020ADF8100001A90E4800F03FFD08216E
:101850000C4800F077FD01210A4800F0B3FC01219B
:10186000084800F0BEFC0020ADF8200006A905489D
:1018700000F078FD0121034800F0BFFC0BB000BD73
:1018800000200240000C004000BFFEE7704700004F
:1018900070B5002100230F22C4781CB3174C2468B4
:1018A00004F4E064C4F5E064C4F30721C1F1040466
:1018B000E3B20A4144789C40E1B284781440214369
:1018C0000C07210E0E4C05786155047804F01F05B5
:1018D0000124AC4005786D11AD0005F1E025C5F897
:1018E000004109E0047804F01F050124AC40054DD7
:1018F0000678761145F8264070BD00000CED00E03A
:1019000000E400E080E100E002490143024A116086
:10191000704700000000FA050CED00E000B97047C8
:10192000017092ED000A80ED010A92ED010A80ED4E
:10193000020A92ED020A80ED030A92ED030A80ED9D
:10194000070A92ED040A80ED060A9FED0D0A80ED6C
:10195000100A80ED0F0A80ED0E0A9FED090A80ED56
:101960000A0A80ED0D0A80ED0C0A80ED0B0A80ED6D
:10197000130A80ED120A80ED110A00BFCFE70000C4
:101980000000000029B1064A12680243044B1A60A5
:1019900004E0034A12688243014B1A60704700005A
:1019A0003038024029B1064A12680243044B1A60DB
:1019B00004E0034A12688243014B1A60704700003A
:1019C0004038024029B1064A12680243044B1A60AB
:1019D00004E0034A12688243014B1A60704700001A
:1019E0002038024029B1064A12680243044B1A60AB
:1019F00004E0034A12688243014B1A6070470000FA
:101A00004438024029B1064A12680243044B1A6066
:101A100004E0034A12688243014B1A6070470000D9
:101A200024380240F0B500210022002402250026BF
:101A30000223324F3F6807F00C0121B1042905D081
:101A4000082937D105E02E4F076036E02D4F07609B
:101A500033E02A4F3F1F3F68C7F38056274F3F1F91
:101A60003F6807F03F036EB1264FB7FBF3F7DFF88F
:101A70008CC0ACF1040CDCF800C0CCF3881C07FB74
:101A80000CF40CE01E4FB7FBF3F7DFF870C0ACF1BD
:101A9000040CDCF800C0CCF3881C07FB0CF4174FD7
:101AA0003F1F3F68C7F301477F1C7D00B4FBF5F77C
:101AB000076002E0124F076000BF00BF0F4F3F6892
:101AC00007F0F0010909104F7A5C0768D7404760BA
:101AD0000A4F3F6807F4E051890A0B4F7A5C476868
:101AE000D7408760054F3F6807F46041490B064FB8
:101AF0007A5C4768D740C760F0BD000008380240F4
:101B00000024F400001BB7001400002070B590B052
:101B100004460E46154601214A48FFF733FF0121CE
:101B20001020FFF75FFF01211020FFF76BFF00215E
:101B30001020FFF767FF072211464348FFF79DFB80
:101B400080200E9002208DF83C0000208DF83E0091
:101B500003208DF83D0000208DF83F000EA93A4883
:101B6000FFF743FB394800F08DFE39480A9000200A
:101B7000ADF82C00ADF82E004FF48060ADF83000C9
:101B80000420ADF832000020ADF834000AA92F4837
:101B900000F04CFF012240212C4800F069FE10218A
:101BA0002A4800F041FE012240F22441274800F07B
:101BB00018FF0121254800F04FFE25208DF83C003C
:101BC00004208DF83D0000208DF83E0001208DF8A6
:101BD0003F000FA8FFF75CFE1E48FFF797F84FF095
:101BE000006001901948001D0290039400200490A9
:101BF000059506904FF480600790002008900990AA
:101C00004FF480700A904FF440300B9000200C90FD
:101C10000D900E900F9001A90E48FFF793F9002246
:101C200031460C48FFF729F901210A48FFF71AF954
:101C300000210848FFF75EF801210648FFF75AF82F
:101C400010B070BD020040000004024000100140CE
:101C5000A08601004064024000B101B970470278DB
:101C6000437842EA0322C2F30A020A804278D21081
:101C7000837842EA4312C2F30A024A8082789211C0
:101C8000C37842EA8302037942EA8322C2F30A025A
:101C90008A8002795210437942EAC312C2F30A02DF
:101CA000CA804279C2F301128A72427912119308F2
:101CB000CB728279C37942EA032212B28A81027A14
:101CC000437A42EA032213B201F10C02CB81827AF9
:101CD000C37A42EA032213B201F10C020B82037BA6
:101CE0008B74437BCB74827BC37B42EA03228A8260
:101CF000027C437C42EA032212B20A810A88A2F5DE
:101D0000806212B20A804A88A2F5806212B24A80CA
:101D10008A88A2F5806212B28A80CA88A2F580629F
:101D200012B2CA800A89A2F5806212B20A8100BF8B
:101D300094E7000000B587B001211020FFF722FED4
:101D400001214803FFF74EFE4FF483500590022017
:101D50008DF8180000208DF81A0003208DF8190066
:101D600001208DF81B0005A91F48FFF73EFA052248
:101D700011461D48FFF781FA052206211A48FFF790
:101D80007CFA05220C211848FFF777FA0121480355
:101D9000FFF738FE00214FF40050FFF733FE00201C
:101DA000ADF800004FF48270ADF802000020ADF8ED
:101DB0000400ADF80600ADF808004FF40070ADF86F
:101DC0000A001020ADF80C000020ADF80E000A202B
:101DD000ADF810006946054800F0BEF8012103483F
:101DE00000F0A0F807B000BD001002400034014030
:101DF00000B587B001212020FFF7C4FD01210805AF
:101E0000FFF7F0FD4FF46070059002208DF8180088
:101E100000208DF81A0001208DF81B0003208DF89A
:101E2000190005A92048FFF7E0F9052207211E48FF
:101E3000FFF723FA052208211B48FFF71EFA0522A7
:101E400009211948FFF719FA01210805FFF7DAFD02
:101E500000214FF48010FFF7D5FD0020ADF8000001
:101E60004FF48270ADF802000020ADF804000220AB
:101E7000ADF806000120ADF808004002ADF80A00F8
:101E80003820ADF80C000020ADF80E000720ADF8AA
:101E900010006946054800F05FF80121034800F092
:101EA00041F807B000BD000000140240005001409E
:101EB00010B5044600211848FEF71CFF0021164803
:101EC0001830FEF717FF00BF1348FEF7E2FF0028A7
:101ED000FAD100BF10481830FEF7DBFF0028F9D117
:101EE0000E490D481830FEF7D1FE0D490A48FEF79D
:101EF000CDFE21460848FFF751F821460648183024
:101F0000FFF74CF8012104481830FEF7F3FE0121D9
:101F10000148FEF7EFFE10BD70640240000C002087
:101F20003000002021B1028842F04002028004E02B
:101F300002884FF6BF731A400280704702460020A5
:101F400013890B400BB1012000E0002070470146CF
:101F5000888970478181704710B50022028802F499
:101F600041520B884C8823438C882343CC882343DD
:101F70000C8923434C8923438C892343CC892343F5
:101F80001A430280838B4FF2FF74234083830B8AB2
:101F9000038210BD30B500228B071C0F0F2303FAFC
:101FA00004F20B4B8C1053F824309343084C8D10E3
:101FB00044F8253023468C1053F824308C07240F26
:101FC00000FA04F42343024C8D1044F8253030BD50
:101FD000083801400CB5002001900090414800688D
:101FE00040F480303F49086000BF3E48006800F47C
:101FF000003000900198401C0190009818B9019899
:10200000B0F5A04FF1D13748006800F4003010B1AE
:102010000120009001E0002000900098012860D18C
:1020200030484030006840F080502E494031086010
:102030002D48006840F440402B490860294808308A
:1020400000682849083108600846006840F40040EC
:1020500008600846006840F4A05008602348091F43
:102060000860081F006840F08070091F086000BF0A
:102070001C48006800F000700028F9D01A48006879
:1020800040F480301849086000BF1748406800F4E9
:1020900080300028F9D01448006840F4003012491C
:1020A000086000BF1048406800F400300028F9D0F4
:1020B00040F205700E4908600A480830006820F0B8
:1020C00003000849083108600846006840F0020033
:1020D000086000BF03480830006800F00C000828C2
:1020E000F8D10CBD0038024000700040062D4008B9
:1020F000003C0240042808D14FF0E021096941F07A
:1021000004014FF0E022116107E04FF0E02109697E
:1021100021F004014FF0E0221161704710B503F087
:1021200017F8012801D002F0C1FC10BD10B5154808
:10213000006840F47000134908601348006840F0DC
:1021400001001149086000200F49083108600E485D
:1021500000680E4908400C4908600D48091D0860D8
:10216000081F006820F48020091F0860002006492D
:102170000C310860FFF72EFF4FF0006001498039F5
:10218000086010BD88ED00E000380240FFFFF6FE59
:102190001030002410B50121084800F03DF860B16E
:1021A0000121064800F01AF8054802684068521CF0
:1021B00040F1000002490A60486010BD0004004080
:1021C0009800002021B1028842F08002028004E0E1
:1021D00002884FF67F731A4002807047CA4302821A
:1021E000704721B1028842F00102028004E00288B7
:1021F0004FF6FE731A400280704731B1B0F84420A8
:1022000042F40042A0F8442005E0B0F84420C2F3B4
:102210000E02A0F84420704730B50246002000238B
:102220000024158A05EA0103958905EA010413B122
:102230000CB1012000E0002030BD000070B500248A
:1022400000220023058C4FF6FE7635400584028C73
:102250008388048B4FF68F752C40B51E2C400D885B
:102260002C43751E2A408D892A434D882A43104DE0
:10227000A84202D00F4DA84213D14FF6F7752A405D
:10228000CD892A434FF6FB752A408D882A434FF6A5
:10229000FF652B404FF6FF552B400D8A2B434D8A8F
:1022A0002B43838004838D684563028470BD0000E6
:1022B00000000140000401400A460021018B4FF656
:1022C000F7731940114301837047000070B5002275
:1022D00000230024058C4EF6FF7635400584038CE0
:1022E0008488828B48F6FF752A404FF6FF452A40C6
:1022F0000D884FF6FF7606EA05252A434DF6FF7551
:102300002B408D8906EA05352B434D8806EA0535B5
:102310002B430A4DA84202D0094DA84208D14BF6E2
:10232000FF752C400D8A4FF6FF7606EA85152C4383
:10233000848082838D680564038470BD0000014041
:10234000000401400A460021818B4FF2FF731940BF
:102350004FF6FF7303EA02231943818370474163F9
:102360007047000000220288184B98420ED0184B8C
:1023700098420BD0B0F1804F08D0164B984205D050
:10238000154B984202D0154B984204D14FF68F73EB
:102390001A404B881A43124B984207D0114B98426F
:1023A00004D04FF6FF431A400B891A4302804B6852
:1023B000C3620B880385054B984202D0044B9842B8
:1023C00001D18B7A0386012383827047000001408C
:1023D000000401400004004000080040000C0040E0
:1023E000001000400014004010B540F22551314863
:1023F00000F0CDFA18B12F4800F082FB59E040F20E
:1024000024412C4800F0C3FA002852D0294800F09B
:1024100077FB2948FEF74BFD28BB00212648FEF735
:1024200069FC2548FEF73FFDC0F1240023490880E0
:1024300024212148FEF7B2FD1F48006840F4002027
:102440001D4908601E491C48FEF720FC01211A485E
:10245000FEF750FC1948008812282AD119491A4859
:10246000FFF7FAFB25E000211348FEF743FC124872
:10247000FEF719FDC0F124001049088024210E4800
:10248000FEF78CFD0C48006820F400200A49086023
:102490000B490948FEF7FAFB01210748FEF72AFC21
:1024A00006480088122804D1064907482430FFF75F
:1024B000D3FB10BD0010014040640240A800002082
:1024C000000030109C050220B205022010B5114812
:1024D0000088114908700F48001F0088087000210B
:1024E0000E48FEF707FC0E48FEF7D4FF0D490B48D7
:1024F000FEF7CCFB00BF0948FEF7CBFC0028FAD161
:102500004FF4C8710548FEF749FD01210348FEF765
:10251000F1FB10BD04480040820100202860024009
:102520000C0B0220000C001000B587B00121082020
:10253000FFF728FA01218804FFF734FA072209215E
:102540002548FEF79AFE072208212348FEF795FE4C
:102550004FF44070059002208DF818008DF8190096
:1025600000208DF81A0001208DF81B0005A91A48DB
:10257000FEF73BFE4FF4165001900020ADF8080026
:10258000ADF80A00ADF80C00ADF810000C20ADF865
:102590000E0001A9114800F049FA01210F4800F08E
:1025A0005BF940210D4800F03FF9012240F224413F
:1025B0000A4800F016FA27208DF8000003208DF855
:1025C00001008DF8020001208DF803006846FFF736
:1025D0005FF907B000BD0000000C02400048004059
:1025E00070B505460E4600240BE0295D064800F054
:1025F0008CFA00BF4021044800F0BCF90028F9D053
:10260000641CB442F1DB70BD0048004010B540F2DC
:102610002551464800F0BBF9002835D0434800F06A
:102620006FFA4349087040F22551404800F005F91F
:102630004048007801285DD13F480078401C3E4961
:1026400008703A4800F05CFA3C493B4A12788854DA
:1026500039480078022818D139480078A8B9394893
:102660000068801E085CDF285FD10846407811288A
:102670005BD108460021016001203149087000202B
:102680002D4908702B4908704FE02E480068801EC5
:102690002A49085CDF280FD12948007801280BD18E
:1026A00008460021016001202549087000202249C8
:1026B00008702049087038E022480068401E1E4912
:1026C0000978884231D11E48007801282DD1002098
:1026D000184908701B480068401E1849085CDF282C
:1026E00004D104211548FFF77BFF1EE013480021A9
:1026F00001601AE00020104908700C4800F000FA50
:10270000C1B20E480C4A127881540B490978405CDA
:10271000AB2801D1012000E00020064908700846DE
:10272000007810B905480021016010BD0014014077
:10273000B3000020B4000020B5000020AC00002051
:10274000BC000020B800002070B505460E460024ED
:102750000BE0295D064800F0D8F900BF402104488D
:1027600000F008F90028F9D0641CB442F1DB70BD18
:102770000014014010B588B0044601214020FFF745
:1027800001F901212020FFF72DF908220921244811
:10279000FEF773FD08220E212148FEF76EFD4FF46F
:1027A0008440069002208DF81C008DF81D0000204A
:1027B0008DF81E0001208DF81F0006A91848FEF7AD
:1027C00014FD02940020ADF80C00ADF80E00ADF839
:1027D0001000ADF814000C20ADF8120002A9114849
:1027E00000F024F901210F4800F036F840210D488F
:1027F00000F01AF8012240F225510A4800F0F1F8E1
:1028000047208DF8040003208DF805008DF80600A0
:1028100001208DF8070001A8FFF73AF808B010BDB5
:10282000001802400014014001F40072B2F5007F6C
:1028300000D100BFCA430280704710B500220023B8
:1028400040F66A14A14200D100BF0A12012494404C
:10285000A3B2DC43048010BD21B1828942F400524E
:10286000828104E082894DF6FF731A4082817047AD
:102870001AB1838A0B43838202E0838A8B4383826B
:102880007047000010B504463248844208D1012147
:102890001020FFF7B7F800211020FFF7B3F857E03A
:1028A0002D48844209D101214804FFF78BF800210B
:1028B0004FF40030FFF786F84AE02848844209D1F7
:1028C00001218804FFF77EF800214FF48020FFF7F4
:1028D00079F83DE02248844209D10121C804FFF77C
:1028E00071F800214FF40020FFF76CF830E01D482C
:1028F000844209D101210805FFF764F800214FF453
:102900008010FFF75FF823E01748844208D10121C7
:102910002020FFF777F800212020FFF773F817E059
:102920001248844209D101218807FFF74BF80021A2
:102930004FF08040FFF746F80AE00D48844207D187
:1029400001214005FFF73EF800216005FFF73AF846
:1029500010BD00000010014000440040004800404D
:10296000004C00400050004000140140007800403E
:10297000007C004002460020B1F5007F00D100BF7E
:1029800013880B400BB1012000E00020704770B5A8
:102990000246002400230025002040F66A16B142BA
:1029A00000D100BFC1F3421501F01F03012606FA52
:1029B00003F3012D02D19689334006E0022D02D1A6
:1029C000168A334001E0968A33400C12012606FA3B
:1029D00004F41688344013B10CB1012000E000204B
:1029E00070BDF0B50346002400260025002040F607
:1029F0006A17B94200D100BF1846C1F3421401F072
:102A00001F06012707FA06F5012C01D10C3004E05E
:102A1000022C01D1103000E014301AB107682F43A6
:102A2000076002E00768AF430760F0BD2DE9FF478C
:102A300005460E460024A14600BFA046B08900B15D
:102A400000BF2C8A24F44054F08804432C82AC89C3
:102A500041F20C608443B08831890843718908438E
:102A60000443AC81AC8A24F44074B0890443AC8242
:102A70006846FEF7D7FF2048854202D01F488542AE
:102A800002D1DDF80C9001E0DDF80890A88900F48F
:102A9000004040B109EBC90000EB09103168490062
:102AA000B0FBF1F707E009EBC90000EB0910316852
:102AB0008900B0FBF1F76420B7FBF0F004012009B6
:102AC000642101FB1078A88900F4004040B1322055
:102AD00000EBC800B0FBF1F000F00700044308E091
:102AE000322000EB08106421B0FBF1F000F00F0081
:102AF00004432C81BDE8FF87001001400014014011
:102B000001468888C0F308007047C1F3080282803C
:102B1000704700BFFEE7000070B505460C46002672
:102B20000DB1022C01D8002070BDA11E09480288F9
:102B30002846FEF7D3FB0646F1B2A01E285C814270
:102B400006D1601E285CB0EB162F01D10120EBE707
:102B50000020E9E78801002070B505460C460026F4
:102B60000DB1022C01D8002070BD611EFF22284645
:102B7000FEF7CEFB0646601E285CB04201D1012064
:102B8000F2E70020F0E7000000F058F800F0C0F98C
:102B90000D49086000F0C0F90C49086012E0B7EE7A
:102BA000000A0B4880ED000A00F018F814210948CB
:102BB000FEF723FA142001F071FC002001F018FB4D
:102BC00005490860EBE70000B0010020B4010020D7
:102BD000600D0220A06002409C01002030B5044638
:102BE000002217E004EB8200D0ED000AB0EE600A8C
:102BF0001148FEF7EBFA002008E00F49095C00EBF2
:102C000082030D4D143DE954411CC8B20328F4DD84
:102C1000501CC2B2032AE5DD002009E00649091D67
:102C20000A5C00F11001044B143B5A54411CC8B219
:102C30000328F3DD30BD0000840D0220002005498B
:102C40000876002103484176802181767F21C17674
:102C500070470000700D022002E008C8121F08C172
:102C6000002AFAD170477047002001E001C1121F0D
:102C7000002AFBD17047000030B58BB005460C46EA
:102C800001214020FEF78EFE01218020FEF77AFE12
:102C900001214020FEF796FE00214020FEF792FE23
:102CA000092206212048FEF7E8FA40200990022078
:102CB0008DF8280003208DF8290000208DF82A00C7
:102CC00002208DF82B0009A91748FEF78EFA602024
:102CD000ADF804000120ADF806000020ADF81000AA
:102CE00001A91248FFF7AAFA08211048FFF7E4FAF1
:102CF00001210E48FFF766FA681E0790601E80B239
:102D0000ADF818000020ADF81A00ADF8200006A9B3
:102D10000648FFF727FB01210448FFF762FA00F09D
:102D200007F80BB030BD0000001C02400018004046
:102D300010B500210148FFF712FB10BD001800403C
:102D400010B51F481F4908601F4809680860042023
:102D50001C49096881F88C0141F2941119480068F6
:102D6000A0F88E11B7EE000A1648006880ED640ADC
:102D7000B2EE080A1348006880ED650A002009E0F9
:102D800000EB8001114A02EBC1020D49091D41F817
:102D90002020401C0428F3DB0D4A00210848303075
:102DA000FEF7BCFD0B4A002105488030FEF7B6FD5A
:102DB000094A00210248D030FEF7B0FD10BD0000E6
:102DC000E8070220D0000020480D02209C060220C7
:102DD000D8000020EC00002000010020FFF7B0FF29
:102DE00002E0642001F05AFBFBE7000070B50446E6
:102DF0000025681FFFF77EF9134800681349B0FBF0
:102E0000F1F013490870104800684FF4FA51B0FB14
:102E1000F1F0104908600CB94FF47A740A48006860
:102E2000B0FBF4F0C5086D1E4FF0E020006940F0E3
:102E300002004FF0E021086108464561006940F05A
:102E40000100086170BD00000000002000127A003F
:102E5000A0000020A400002070B50346002400213B
:102E60000020002200254FF0E02675690D4E3668DF
:102E700003FB06F44FF0E026B16910E04FF0E026C6
:102E8000B06988420BD0884202D20E1A324402E066
:102E90002E1A0E4432440146A24200D300E0EDE770
:102EA00000BF70BDA400002070B5034600240021BF
:102EB0000020002200254FF0E02675690D4E36787F
:102EC00003FB06F44FF0E026B16910E04FF0E02676
:102ED000B06988420BD0884202D20E1A324402E016
:102EE0002E1A0E4432440146A24200D300E0EDE720
:102EF00000BF70BDA000002010B504464FF48070E4
:102F000040FA04F10148FEF7E6F910BD001802404E
:102F100000487047280E022000487047040E022027
:102F2000028812B28281428882800A7BCB7A42EA8E
:102F3000032202808B7B4A7B43EA022212B2428048
:102F40000B7CCA7B43EA022212B202814A7C827263
:102F5000B0F9042000EE102AB8EEC00ADFED240A12
:102F600020EE200AB0F9022000EE902AF8EEE00AE6
:102F70009FED201A00EE810ABDEEC00A10EE102A65
:102F800012B2C2800288B0F90C30D21AB2F5805F5A
:102F900003DB0269521E026109E00288B0F90C30BD
:102FA000D21A12F5805F02DC0269521C02610269CA
:102FB000C2EB423203881A44C389D21A42610269C1
:102FC000C2EB423203881A44C389D21A8261026971
:102FD000C2EB423203881A44C389D21AC261026921
:102FE000C2EB423203881A44C389D21A0262704784
:102FF0006666663FD0CCCC3D028812B282814288A0
:1030000082800A7BCB7A42EA032202808B7B4A7B56
:1030100043EA022212B242800B7CCA7B43EA0222BC
:1030200012B202814A7C82720288B0F90C30D21A44
:10303000B2F5805F03DB0269521E026109E002887B
:10304000B0F90C30D21A12F5805F02DC0269521C12
:1030500002610269252A02DD0269243A02610269DD
:10306000002A02DA0269253202610269C2EB4232A9
:1030700003881A44C389D21A42610269C2EB423200
:1030800003881A44C389D21A82610269C2EB4232B0
:1030900003881A44C389D21AC2610269C2EB423260
:1030A00003881A44C389D21A0262028800EE102AE9
:1030B000B8EE400ADFED050A20EE200ADFED040A33
:1030C00080EE201A80ED091A704700000000B4431A
:1030D00000F8FF4510B50446184804601848006819
:1030E0001C30184908601848A060184860601848EB
:1030F00020609FED180A84ED5A0AB0EE080A84EDAC
:10310000590A9FED150A84ED560A144A002104F16C
:10311000B800FEF703FC124A002104F58470FEF7A4
:10312000FDFB104A002104F11800FEF7F7FB0E4AE0
:10313000002104F16800FEF7F1FB10BD2001002022
:10314000D000002024010020480D02207406022037
:103150004C0602209A99193F00002F456801002073
:1031600054010020400100202C0100200348FFF7FB
:10317000B1FF02E0012001F091F9FBE7880902208C
:103180001CB501214020FEF7FDFB4FF400500090DC
:1031900001208DF8040000208DF8060003208DF832
:1031A000050001208DF8070069460348FEF71DF869
:1031B00000F004F81CBD00000018024010B54FF4E8
:1031C00000510248FEF785F810BD000000180240CB
:1031D0001CB501217020FEF7D5FB4FF48040009014
:1031E00001208DF8040000208DF8060003208DF8E2
:1031F000050001208DF8070069460D48FDF7F5FF31
:103200004FF40060009069460A48FDF7EEFF00F0B9
:1032100015F800F01DF84FF4FF700090694606485D
:10322000FDF7E3FF4FF4FF70FFF766FE1CBD0000E3
:1032300000140240001002400018024010B54FF484
:1032400080410248FEF747F810BD0000001402401C
:1032500010B54FF400610248FEF73DF810BD0000C4
:1032600000100240FDF742F96420FFF7F5FD01214F
:10327000084600F0EDF86420FFF7EEFD00F000FFD7
:1032800001F0DEFA00BFFEE71CB501212020FEF7A9
:1032900079FB4020009001208DF8040000208DF87B
:1032A000060001208DF8070003208DF8050069460F
:1032B0000148FDF79AFF1CBD0014024010B54021E3
:1032C0000148FEF708F810BD0014024010B5402177
:1032D0000148FDF7FEFF10BD0014024070B5054621
:1032E000002405E0601CC4B2C82C01DD002070BDC4
:1032F00002210E48FEF722FE0028F3D029460B4893
:10330000FEF728FE002405E0601CC4B2C82C01DDD5
:103310000020ECE701210548FEF710FE0028F3D05D
:103320000248FEF714FEC0B2E1E700000050014081
:1033300010B5FEF75DFD10BD2DE9F0410025962684
:1033400032270024FFF7A0FFFFF7F2FF752000F0FF
:1033500061F8304600F058F8752000F05BF8304610
:1033600000F052F880216B2000F064F8384600F03D
:1033700045F8752000F04EF8304600F045F875200D
:1033800000F048F8304600F03FF8752000F042F8B1
:103390000546304600F038F8702D02D08020BDE898
:1033A000F081002424E004EB4402134B1A445178CA
:1033B00004EB4402985C00F03DF8304600F024F83D
:1033C00004EB44010C4A505C00F024F805463046FA
:1033D00000F01AF804EB4400074908444078A8427A
:1033E00004D004EB440008448078D8E7601CC4B2E1
:1033F0000E2CD8DB0020D2E70056000810B504469A
:103400002046FFF729FD10BD10B50446A0B2FFF716
:103410004BFD10BD70B50446FFF758FF44F0800027
:10342000FFF75CFFFF20FFF759FF0546FFF746FF58
:10343000284670BD70B505460C46FFF747FF284685
:10344000FFF74CFF2046FFF749FFFFF737FF70BD3E
:1034500030B585B004460D464FF4C06000900020A2
:103460008DF808008DF8090004208DF80A0020125C
:103470008DF80B00E1B28DF80C1000218DF80D10C5
:10348000012D01D1012100E000218DF80E106946C7
:103490000248FDF7DBFA05B030BD000000640040D3
:1034A0002DE9F04105460E461C4807681C48006897
:1034B000001D00F089FE50B91948006890F82C10E2
:1034C0000120884017490968814316480160681C3B
:1034D00038B936B112480168091D134800F0C6FE1C
:1034E0001AE07C190E4800684460BC4207D20C48C0
:1034F0000168091D0D48006800F09EFE0CE00848B8
:103500000168091D0A48006800F096FE0948006835
:10351000844201D207480460BDE8F08138000020F1
:10352000240000203C000020600500202C0000202A
:10353000280000205400002010B5044600F0A2FE30
:1035400024480068401C234908602348006840B9AB
:10355000214804600846006801280DD100F0E0F918
:103560000AE01E48006838B91B480068C06AE16A72
:10357000884201D81848046019480068401C18495E
:10358000086008460068606494F82C1001208840A8
:1035900014490968084313490860E16A01EB810195
:1035A000114A02EB8100211D00F060FE00F094FE44
:1035B0000A48006868B108480068C06AE16A884241
:1035C00007D24FF0805009490860BFF34F8FBFF317
:1035D0006F8F10BD34000020240000204000002028
:1035E000500000203C0000209002002004ED00E08C
:1035F00010B500F047FE10480068D0B90F4800F041
:103600000BFE0F4800F008FE0C480E4908600C48FD
:103610000D49086000220C210A2001F061FA0649D8
:1036200008600846006820B108A10348006800F05F
:10363000F9FE00F051FE10BD680000207405002066
:10364000880500206000002064000020546D725145
:103650000000000070B523E001F03CF91348006859
:1036600008B9012000E00020054601F0DBFEBDB9ED
:1036700000F008FE0D48C068C468201D00F0A4FDDD
:103680000B480068401E0A4908600A480068401E4E
:103690000849086000F020FE204600F060F800BFF6
:1036A000044800680028D7D170BD00004C050020F8
:1036B000340000203000002070B504460D46206C18
:1036C00070B1216CE0680844E0606168E06888429D
:1036D00001D32068E0602846226CE168FCF7E6FD33
:1036E00070BD2DE9F04104460F4615464FF0000825
:1036F000A66B206C40B9206860BB606801F0E2FDF9
:1037000080460020606025E07DB93946226CA068C3
:10371000FCF7CCFD216CA0680844A060D4E901103E
:10372000884217D32068A06014E03946226CE06814
:10373000FCF7BCFD216CE068401AE0602168E0689D
:10374000884203D2216C6068401AE060022D01D1EA
:1037500006B1761E701CA0634046BDE8F08110B52E
:103760000446206B00F0D6FD204600F0D3FD10BDCE
:103770000146084A126812680AB9012200E00022D4
:103780000A600A6822B9034A1268D268106800E029
:10379000002070476000002030B54FF40033174818
:1037A00000F007042CB1C01D20F00700134C041BCF
:1037B0001B1B0246124C22600024114D6C60D01875
:1037C000083820F007000F4C206000240D4D2D68B4
:1037D0006C600C4D2D682C601146441A4C60094CED
:1037E00024680C60084D4C682C60084D4C682C60B7
:1037F0004FF00044064D2C6030BD00009C050020B9
:10380000740000207C000020840000208000002044
:103810008800002000BFFFF71DFF06480068012850
:10382000F9D94FF0805004490860BFF34F8FBFF3C0
:103830006F8FF0E79002002004ED00E02DE9F041E9
:1038400006460D4617469846069C0DB9246000E0D2
:103850002760E66325640121204601F04FFA84F8D1
:1038600050800020A064BDE8F0812DE9F05F824621
:103870000F4690469B460A9E0C9C4FEA8801A52263
:10388000206BFCF725FDA8F10100216B01EB8009FD
:1038900029F0070909F0070008B9012000E000201D
:1038A00050B900BF502080F31188BFF34F8FBFF392
:1038B0006F8F00BF00BFFEE7002507E0795D04F1D0
:1038C00034004155785D00B902E06D1C102DF5D330
:1038D00000BF002143200155202E00D31F26E662A1
:1038E000E66400202065201D00F0A3FC04F1180010
:1038F00000F09FFC2461C6F12000A06164620020FA
:10390000606584F858005A465146484600F098FBD6
:1039100020600B9808B10B980460BDE8F09F000090
:1039200010B5002407E004EB84010F4A02EB81008C
:1039300000F072FC641C202CF5D30C4800F06CFCE9
:103940000B4800F069FC0B4800F066FC0A4800F0E8
:1039500063FC0A4800F060FC044809490860044818
:103960000849086010BD00009002002010050020EA
:1039700024050020380500204C05002060050020AB
:10398000280000202C00002010B50146164800E059
:10399000006803688B42FBD30246436813448B42A2
:1039A00004D143684C682344436001460A464B688F
:1039B00013440468A34211D10C4C03682468A34249
:1039C00008D04B680468646823444B6003681B6834
:1039D0000B6005E0054B1B680B6001E003680B60A2
:1039E000884200D0016010BD740000207C000020DF
:1039F0002DE9F04104460D4616461F464FF00008DB
:103A000065602461B5420CD8F01BA169884202D3DD
:103A10004FF0010811E0211D0948006800F00CFC7E
:103A20000BE0BE4204D2BD4202D34FF0010804E0D5
:103A3000211D0448006800F0FFFB4046BDE8F0810E
:103A4000640000206000002070B5054600F01AFCFC
:103A5000A86B08B9012400E0002400F03DFC2046DA
:103A600070BD70B5054600F00DFCA86BE96B88428F
:103A700001D1012400E0002400F02EFC204670BD9E
:103A80002DE9F3410D460098846C002754B900BF1E
:103A9000502080F31188BFF34F8FBFF36F8F00BFAB
:103AA00000BFFEE7A06BE16B884201D2012000E07D
:103AB000002050B900BF502080F31188BFF34F8F12
:103AC000BFF36F8F00BF00BFFEE7A06BE16B8842C2
:103AD0001BD294F945602A4669462046FFF701FE4D
:103AE0000746701C60B9606A08B9012000E0002038
:103AF00050B904F1240001F049FC28B1012703E08A
:103B0000701C40B284F8450000BF3846BDE8FC8117
:103B1000F8B505460F4616480068C068C468201D01
:103B200000F052FBE06901281DD1A06941192B4624
:103B30003A462046FFF75CFFA8B1002003462A461C
:103B400001460090204601F019FD064656B900BF17
:103B5000502080F31188BFF34F8FBFF36F8F00BFEA
:103B600000BFFEE700BF2046616A8847F8BD00003D
:103B70006000002070B586B06AE00398002867DB1B
:103B8000059C606908B9012000E0002010B9201DE3
:103B900000F01AFB02A800F0BDF8054603980A28B9
:103BA00054D2DFE800F009050731334F06083234FC
:103BB00000BF00BF00BF00BF0498A2698118034680
:103BC0002A462046FFF714FFE8B12046616A88477D
:103BD000E069012817D1002000900498A1694218DB
:103BE00000231946204601F0C9FC064656B900BF1D
:103BF000502080F31188BFF34F8FBFF36F8F00BF4A
:103C000000BFFEE700BF22E000BF20E000BF049835
:103C1000A061A06908B1012000E0002050B900BFF8
:103C2000502080F31188BFF34F8FBFF36F8F00BF19
:103C300000BFFEE7A06941192B462A462046FFF740
:103C4000D7FE04E0204600F065FB00E000BF00BFA7
:103C500000231A4603A90448006800F06DFF0028FD
:103C60008BD106B070BD000068000020F8B5054695
:103C70000C4600F02FFE684600F04CF8064600980F
:103C800020BB44B9B54206D801F0CCFB31462846EA
:103C9000FFF73EFF1CE03CB10E480068006808B921
:103CA000012000E000200446A91B22460A480068C3
:103CB00000F0CEFB01F0B6FB50B94FF08050074941
:103CC0000860BFF34F8FBFF36F8F01E001F0AAFBD5
:103CD000F8BD0000640000206800002004ED00E052
:103CE0000A490968096809B9012100E0002121B1E8
:103CF0004FF0FF31064A116006E004490968C968BF
:103D0000C868034A4168116070470000280000201D
:103D10005400002070B5044601F02AFA0546074811
:103D20000068854204D200F00BF80120206001E019
:103D30000020206001480560284670BD700000200A
:103D40002DE9F84332E024480068C068056822483D
:103D50000068C068C468201D00F036FA2046616A19
:103D60008847E069012821D1A0694619AE4207D9E8
:103D700066602461211D1848006800F05DFA15E0B6
:103D8000002003462A4601460090204601F0F6FB3B
:103D9000074657B900BF502080F31188BFF34F8FFB
:103DA000BFF36F8F00BF00BFFEE700BF0A48006887
:103DB000006808B9012000E000200028C3D00648B0
:103DC000D0F8008005480068034908600348C0F83F
:103DD0000080BDE8F883000060000020640000203F
:103DE0000246002101E0521C491C1078A528FAD097
:103DF000890888B2704700000E480068401C08B966
:103E0000012000E0002050B900BF502080F311884D
:103E1000BFF34F8FBFF36F8F00BF00BFFEE700BF40
:103E2000502080F31188BFF34F8FBFF36F8F00BF17
:103E300000BFFEE78C00002008B500BF6846FFF712
:103E400097FC044620460099FFF710FFFFF792FE0B
:103E5000F4E770B5044600F015FA94F945501AE0FD
:103E6000A06C38B100212046FFF70AFE88B100F0AF
:103E7000BDFB0EE0606A08B9012000E0002038B9FF
:103E800004F1240001F082FA18B100F0AFFB00E069
:103E900003E0681E45B2002DE2DC00BFFF2084F87D
:103EA000450000F019FA00F0EDF994F9445010E0E3
:103EB000206908B9012000E0002048B904F1100091
:103EC00001F064FA08B100F091FB681E45B200E011
:103ED00001E0002DECDC00BFFF2084F8440000F07E
:103EE000FBF970BD2DE9F04104464FF0000800F0E9
:103EF000F1FC4648006808B9FFF74EFC44480068EA
:103F0000204000286BD1D4B1083404F00700B0B1D0
:103F100004F00700C0F10800044404F0070008B9E9
:103F2000012000E0002050B900BF502080F311882C
:103F3000BFF34F8FBFF36F8F00BF00BFFEE7002CB2
:103F40004DD034480068844249D8334E3046056825
:103F500001E02E462D686868A04202D22868002839
:103F6000F7D12A480068854239D0306800F1080846
:103F7000286830606868001B102819D92F1907F0CD
:103F8000070008B9012000E0002050B900BF502010
:103F900080F31188BFF34F8FBFF36F8F00BF00BF57
:103FA000FEE76868001B78606C603846FFF7ECFC41
:103FB000184968680968081A1649086008460068C0
:103FC00016490968884203D21248006813490860FC
:103FD0000F4968680968084368600020286001F09C
:103FE00021FA08F0070008B9012000E0002050B9CC
:103FF00000BF502080F31188BFF34F8FBFF36F8F46
:1040000000BF00BFFEE74046BDE8F0817C00002015
:104010008800002080000020740000208400002020
:104020000648006830B10549096801F15000096D82
:10403000491C01600148006870470000240000200E
:10404000001F4FF080730360001F21F00103036025
:10405000001F054B036014380260001F6FF002035D
:104060000360203870470000F93D000810B5242295
:104070000249A1F12400FDF749FD10BDD60502203B
:104080001CB50548012100234A02CDE9001003A117
:10409000054801F02DF81CBD8C010020737461727D
:1040A000745F7461736B0000AD4000081CB504467A
:1040B00000F0E8F81348102100230A01CDE90010B0
:1040C00011A1154801F014F81448112100234FF4F0
:1040D0000072CDE9001012A1144801F009F814484B
:1040E0000A2100234FF48072CDE9001011A1144879
:1040F00000F0FEFF1348006800F0FEF900F0ECF855
:104100001CBD000094010020636861737369735FD4
:104110007461736B00000000DD2D00089801002021
:1041200067696D62616C5F7461736B006D3100086B
:1041300090010020566F66615461736B00000000AF
:10414000892B00088C01002000B587B00020019069
:104150008DF808008DF809000390059001208DF876
:10416000180001A90248FCF725F907B000BD0000BE
:10417000002001401FB501210802FDF733FC012199
:104180000802FDF73FFC00214FF48070FDF73AFC78
:104190000120FCF795F900200090039002904FF465
:1041A000803001906846FCF7EDF8FFF7CDFF012362
:1041B0001A4612210348FCF727F901210148FCF7B0
:1041C000D6F81FBD0020014001460A69D1E901303F
:1041D0009860D1E9010358605068884201D188682D
:1041E0005060002008611068401E10601068704721
:1041F0002DE9F041044614B90648006800E0204665
:1042000007463D6B2846FFF7EBFD06463046BDE806
:10421000F08100002400002000F1080141604FF00F
:10422000FF31816000F10801C1600161002101607E
:10423000704700210161704710B502460B685C1C95
:104240000CB9106907E002F1080000E0406844681A
:1042500024689C42FAD944684C604C68A16088602C
:1042600041600A611468641C146010BD42684A60B1
:1042700093688B60936859609160086103685B1C68
:104280000360704700BF502080F31188BFF34F8F49
:10429000BFF36F8F00BF0E480068401C0C490860D8
:1042A00008460068012812D10A480068C0B208B95F
:1042B000012000E0002050B900BF502080F3118899
:1042C000BFF34F8FBFF36F8F00BF00BFFEE7704794
:1042D0008C00002004ED00E00D48006850B900BFDC
:1042E000502080F31188BFF34F8FBFF36F8F00BF53
:1042F00000BFFEE706480068401E05490860084602
:10430000006820B9002080F3118800BF00BF70470B
:104310008C00002070B506463546002E3FD0083D83
:104320002C461F4960680968084008B1012000E078
:10433000002050B900BF502080F31188BFF34F8F89
:10434000BFF36F8F00BF00BFFEE7206808B90120F0
:1043500000E0002050B900BF502080F31188BFF367
:104360004F8FBFF36F8F00BF00BFFEE70C4960683F
:104370000968084098B1206888B9094960680968E7
:104380008843606000F0A6FA06496068096808443E
:10439000044908602046FFF7F7FA01F043F870BDC2
:1043A00088000020800000207047000070B5FBF7F7
:1043B0005FFF0446102C16D304F1E02090F8F05370
:1043C00015480078854201DB012000E0002050B94B
:1043D00000BF502080F31188BFF34F8FBFF36F8F62
:1043E00000BF00BFFEE70D48006800F4E0600C4924
:1043F0000968884201D8012000E0002050B900BFC0
:10440000502080F31188BFF34F8FBFF36F8F00BF31
:1044100000BFFEE770BD0000900000200CED00E042
:1044200094000020024600200BE0084B53F8303087
:1044300033B9064B43F8301003EBC0035A6002E077
:10444000401C0828F1D300BF704700005002002034
:104450002DE9F04105460E4617462C46FFF712FFA0
:1044600094F94400401C10B9002084F8440094F9E9
:104470004500401C10B9002084F84500FFF72CFFD0
:10448000A06B28B93A46314604F1240000F048F9FF
:104490002046FFF7DEFCBDE8F081000070B5044661
:1044A0000025D4B11248006808B9012000E00020BE
:1044B00050B900BF502080F31188BFF34F8FBFF376
:1044C0006F8F00BF00BFFEE700F004FA0021204616
:1044D000FEF7E6FF00F0A6FF05463DB94FF080501D
:1044E00004490860BFF34F8FBFF36F8F70BD0000AA
:1044F0005C00002004ED00E070B50546FFF7C2FE49
:1045000015B93048006800E028460446201DFFF732
:104510005BFE78B9E06A00EB80002B4951F820007F
:1045200040B994F82C10012088402849096881433B
:1045300026480160A06A18B104F11800FFF744FE94
:1045400023480068401C224908601E4800688442D5
:1045500009D1211D1F48FFF789FE1F480068401C34
:104560001D49086009E01D480068401E1B4908609D
:104570002046FFF7F4F8FFF7B3FBFFF7ADFE18484E
:104580000068E8B10F480068844219D115480068F6
:1045900008B9012000E0002050B900BF502080F38E
:1045A0001188BFF34F8FBFF36F8F00BF00BFFEE7CF
:1045B0004FF080500C490860BFF34F8FBFF36F8FEF
:1045C00070BD000024000020900200203C0000206C
:1045D000500000204C050020300000203400002056
:1045E000400000205C00002004ED00E001200149B3
:1045F00008607047480000202DE9F04105460F464D
:1046000055B900BF502080F31188BFF34F8FBFF31F
:104610006F8F00BF00BFFEE7FFF7C8FE2C4600BF4C
:104620005021EFF3118081F31188BFF34F8FBFF357
:104630006F8F00BF064694F85880022084F8580017
:10464000606D401C6065B8F1010F3BD1A06A08B9EC
:10465000012000E0002050B900BF502080F31188F5
:10466000BFF34F8FBFF36F8F00BF00BFFEE7184847
:104670000068A8B9201DFFF7A7FD94F82C100120B1
:10468000884014490968084312490860E16A01EB4F
:104690008101114A02EB8100211DFFF7E7FD04E0D3
:1046A00004F118010D48FFF7E1FD0D49E06A0968C2
:1046B000C96A884206D917B10120386002E001209A
:1046C0000849086000BF86F3118800BFBDE8F0818B
:1046D0005C0000203C0000209002002038050020F3
:1046E000240000204800002070B504460D4654B94F
:1046F00000BF502080F31188BFF34F8FBFF36F8F3F
:1047000000BF00BFFEE70548016818312046FFF7EB
:1047100093FD01212846FEF7C3FE70BD2400002052
:1047200070B505460E46144655B900BF502080F3BB
:104730001188BFF34F8FBFF36F8F00BF00BFFEE73D
:104740000648016818312846FFF790FD0CB14FF07C
:10475000FF3621463046FEF7A3FE70BD2400002040
:1047600070B505462C46002D4BD02649E06A0968F5
:10477000C96A884245D2A06900F0004028B92148A2
:104780000068C06AC0F12000A061E16A01EB81010C
:104790001D4A02EB81016069884201D1012000E0DD
:1047A000002050B3201DFFF70FFD78B9E06A00EB41
:1047B0008000154951F8200040B994F82C100120D0
:1047C0008840124909688143104801600D4800681B
:1047D000C06AE06294F82C10012088400B490968F7
:1047E00008430A490860E16A01EB8101064A02EBCD
:1047F0008100211DFFF73AFD03E002480068C06A0E
:10480000E06270BD24000020900200203C000020E7
:1048100050B900BF502181F31188BFF34F8FBFF310
:104820006F8F00BF00BFFEE70349096801600349BD
:1048300009684160704700004C00002038000020EB
:104840001CB51D4800210B468022CDE900101BA19C
:104850001C4800F04DFC0446012C02D100F064FE1F
:104860000446012C15D100BF502080F31188BFF3FE
:104870004F8FBFF36F8F00BF4FF0FF3012490860BA
:1048800001201249086000201149086000F070F80A
:1048900010E0601C08B1012000E0002050B900BF0A
:1048A000502080F31188BFF34F8FBFF36F8F00BF8D
:1048B00000BFFEE71CBD00005800002049444C45E5
:1048C00000000000153800085400002040000020BF
:1048D0003800002002480068401C01490860704709
:1048E0005C0000201D48006818B101201C490860C8
:1048F00032E000201A4908601A480068B0FA80F0D7
:10490000C0F11F0101EB8100174A52F8200008B1E5
:10491000012000E0002050B900BF502080F3118832
:10492000BFF34F8FBFF36F8F00BF00BFFEE701EBF8
:1049300081020D4B03EB820042685268426000F135
:1049400008024368934202D142685268426042685A
:10495000D268064B1A6000BF704700005C00002060
:10496000480000203C00002090020020240000208D
:104970001CB5474800684749884201D0012000E043
:10498000002050B900BF502080F31188BFF34F8F33
:10499000BFF36F8F00BF00BFFEE73D4800683D4991
:1049A000491E884201D0012000E0002050B900BF1C
:1049B000502080F31188BFF34F8FBFF36F8F00BF7C
:1049C00000BFFEE73449084600780190FF200A4600
:1049D00010700846007800909DF8000000F0F0008C
:1049E0009DF80020904201D1012000E0002050B944
:1049F00000BF502080F31188BFF34F8FBFF36F8F3C
:104A000000BF00BFFEE79DF8000000F05000234A01
:104A100010700720224A106009E021480068401EFB
:104A20001F4A10609DF800004006000E00909DF89F
:104A3000000000F080008028EFD0194800680002D4
:104A4000174A10601046008800F4E0601060124AB7
:104A5000019810700E482030006840F470000C4936
:104A6000203108600846006840F070400860FFF799
:104A70009BFC00200B490860FBF7C2FB0A4800685A
:104A800040F0404008490860FBF7AAFB00201CBD2D
:104A900000ED00E071C20F4100E400E09000002052
:104AA000940000208C00002034EF00E010B500BF1F
:104AB000502080F31188BFF34F8FBFF36F8F00BF7B
:104AC00000F05CFB18B14FF080500449086000BF53
:104AD000002080F3118800BF10BD000004ED00E04D
:104AE0002DE9F84305460E4690460DB1012000E041
:104AF000002050B900BF502080F31188BFF34F8FC2
:104B0000BFF36F8F00BF00BFFEE70EB9002701E0C3
:104B100005FB06F707F15400FFF7E4F9044644B13A
:104B200004F1540943464A46314628460094FEF7AC
:104B300085FE2046BDE8F8832DE9FF4782B0054693
:104B40000E461F464FF0000A2C4654B900BF5020B5
:104B500080F31188BFF34F8FBFF36F8F00BF00BF8B
:104B6000FEE70EB9206C08B9012000E0002050B922
:104B700000BF502080F31188BFF34F8FBFF36F8FBA
:104B800000BF00BFFEE700F0E3FA08B9049808B9D7
:104B9000012000E0002050B900BF502080F31188B0
:104BA000BFF34F8FBFF36F8F00BF00BFFEE700BFA3
:104BB000FFF768FBD4F83890B9F1000F3DD0D4F876
:104BC0000C8031462046FEF777FDDFB9A9F10100E0
:104BD000A063206810B9FFF723FA6060206908B964
:104BE000012000E0002010BB04F1100000F0CEFB1B
:104BF000E8B14FF0805040490860BFF34F8FBFF3DA
:104C00006F8F14E0C4F80C80606A08B9012000E0DE
:104C1000002060B904F1240000F0B8FB38B14FF077
:104C2000805035490860BFF34F8FBFF36F8FFFF798
:104C300053FB012006B0BDE8F087049818B9FFF7D0
:104C40004BFB0020F6E7BAF1000F04D16846FFF7EE
:104C5000DFFD4FF0010AFFF73FFBFFF73BFEFFF7D9
:104C600011FB94F94400401C10B9002084F8440062
:104C700094F94500401C10B9002084F84500FFF766
:104C80002BFB04A9684600F0EDF940BB2046FEF777
:104C9000DBFEF0B1206830B9FFF7F4FA6068FFF787
:104CA0005FFDFFF719FB04F124000499FFF71CFDD9
:104CB0002046FFF7CEF800F0B5FB00287FF478AF70
:104CC0004FF080500C490860BFF34F8FBFF36F8FD8
:104CD0006EE72046FFF7BDF800F0A4FB68E720462A
:104CE000FFF7B7F800F09EFB2046FEF7ADFE002868
:104CF000EED000209EE7000004ED00E070B5054610
:104D00000E462C4654B900BF502080F31188BFF3E3
:104D10004F8FBFF36F8F00BF00BFFEE7FFF7B2FA00
:104D2000D4E90F12206801FB020060600020A0633C
:104D30002068A060E06B401E226C216800FB02101E
:104D4000E060FF2084F8440084F845009EB92069A3
:104D500008B9012000E00020A8B904F1100000F01B
:104D600015FB80B14FF0805009490860BFF34F8FA9
:104D7000BFF36F8F07E004F11000FFF74DFA04F165
:104D80002400FFF749FAFFF7A7FA012070BD0000E1
:104D900004ED00E02DE9FF4383B0064688461D463A
:104DA0004FF00009344654B900BF502080F31188F9
:104DB000BFF34F8FBFF36F8F00BF00BFFEE7B8F1A7
:104DC000000F01D1206C08B9012000E0002050B98B
:104DD00000BF502080F31188BFF34F8FBFF36F8F58
:104DE00000BF00BFFEE7022D02D1E06B012801D118
:104DF000012000E0002050B900BF502080F311884E
:104E0000BFF34F8FBFF36F8F00BF00BFFEE700F00F
:104E10009FF908B9059808B9012000E0002050B9B1
:104E200000BF502080F31188BFF34F8FBFF36F8F07
:104E300000BF00BFFEE700BFFFF724FAA06BE16BE5
:104E4000884201D3022D38D12A4641462046FEF73A
:104E500048FC0746A06C68B129462046FEF710FEC4
:104E600028B34FF080503C490860BFF34F8FBFF329
:104E70006F8F1CE0606A08B9012000E0002068B96B
:104E800004F1240000F082FA88B14FF080503249DA
:104E90000860BFF34F8FBFF36F8F08E03FB14FF053
:104EA00080502D490860BFF34F8FBFF36F8FFFF71E
:104EB00013FA012007B0BDE8F083059818B9FFF791
:104EC0000BFA0020F6E7B9F1000F04D101A8FFF7B3
:104ED0009FFC4FF00109FFF7FFF9FFF7FBFCFFF71D
:104EE000D1F994F94400401C10B9002084F8440022
:104EF00094F94500401C10B9002084F84500FFF7E4
:104F0000EBF905A901A800F0ADF8F0B92046FEF7CD
:104F1000A8FDA0B104F110000599FFF7E5FB2046BC
:104F2000FEF797FF00F07EFA002885D14FF0805001
:104F300009490860BFF34F8FBFF36F8F7CE72046AE
:104F4000FEF787FF00F06EFA76E72046FEF781FF56
:104F500000F068FA0020ADE704ED00E02DE9F05F15
:104F600080468A4615461E46444654B900BF502026
:104F700080F31188BFF34F8FBFF36F8F00BF00BF67
:104F8000FEE7BAF1000F01D1206C08B9012000E062
:104F9000002050B900BF502080F31188BFF34F8F1D
:104FA000BFF36F8F00BF00BFFEE7022E02D1E06BA0
:104FB000012801D1012000E0002050B900BF50209D
:104FC00080F31188BFF34F8FBFF36F8F00BF00BF17
:104FD000FEE7FFF7EBF900BF5021EFF3118081F3FB
:104FE0001188BFF34F8FBFF36F8F00BF0746A06BD1
:104FF000E16B884201D3022E2BD194F945B03246A1
:1050000051462046FEF76DFB0BF10100C8B9A06CBC
:1050100040B131462046FEF733FDB8B1B5B10120AD
:10502000286013E0606A08B9012000E0002068B938
:1050300004F1240000F0AAF940B13DB1012028603C
:1050400004E00BF1010040B284F845004FF0010983
:1050500001E04FF0000900BF87F3118800BF484608
:10506000BDE8F09F70B504460D4654B900BF50200E
:1050700080F31188BFF34F8FBFF36F8F00BF00BF66
:10508000FEE755B900BF502080F31188BFF34F8F62
:10509000BFF36F8F00BF00BFFEE7FFF7F3F81248C2
:1050A00003682868401C08B9002619E00F492068E9
:1050B0000968884204D06068984201D801260FE050
:1050C0006068181A2968884209D228686168591AE4
:1050D000401A28602046FFF79BFB002600E00126CF
:1050E000FFF7FAF8304670BD380000204C00002071
:1050F0002DE9FF4F85B0804689461746DDE912ABA2
:10510000B800FEF7EFFE064656B15C20FEF7EAFE59
:1051100004460CB1266304E03046FFF7FBF800E0DC
:1051200000247CB10020CDE900ABCDE902403A4635
:1051300049464046089BFEF798FB2046FEF7FCF9DF
:10514000012501E04FF0FF35284609B0BDE8F08F9A
:105150000549096809B9012005E00449096809B948
:10516000022000E000207047400000205C0000208A
:105170000149086870470000380000202DE9F0411F
:105180004FF0000844480068002877D14348006881
:10519000451C4248056015BB41480068006808B9D5
:1051A000012000E0002050B900BF502080F311889A
:1051B000BFF34F8FBFF36F8F00BF00BFFEE73848CC
:1051C000076838480068364908603648076036483E
:1051D0000068401C34490860FEF782FD00BF334878
:1051E000006885423CD300BF2D480068006808B9BC
:1051F000012000E0002020B14FF0FF302B49086073
:105200002DE027480068C068C4686668B54202D2CD
:105210002648066023E0201DFEF7D6FFA06A18B1DD
:1052200004F11800FEF7D0FF94F82C1001208840FC
:105230001F49096808431E490860E16A01EB8101C2
:105240001C4A02EB8100211DFFF710F81A49E06AA1
:105250000968C96A8842C7D34FF00108C4E700BF94
:1052600015480068C06A00EB8000124951F8200020
:10527000012801D94FF0010805E0FFE70F48006859
:10528000401C0E4908600E48006808B14FF0010844
:105290004046BDE8F08100005C000020380000209E
:1052A000280000202C0000204C000020540000208A
:1052B0003C00002090020020240000204400002038
:1052C0004800002070B505462C460026002D55D01C
:1052D0002B480068844201D1012000E0002050B931
:1052E00000BF502080F31188BFF34F8FBFF36F8F43
:1052F00000BF00BFFEE7206D50B900BF502080F313
:105300001188BFF34F8FBFF36F8F00BF00BFFEE761
:10531000206D401E2065E16CE06A88422ED0206D31
:1053200060BB201DFEF750FF78B9E06A00EB8000FB
:10533000144951F8200040B994F82C1001208840FD
:1053400011490968814310480160E06CE062E06A3D
:10535000C0F12000A06194F82C10012088400A4977
:105360000968084308490860E16A01EB8101054AC0
:1053700002EB8100211DFEF779FF0126304670BD4A
:1053800024000020900200203C00002070B506465A
:10539000F068C46854B900BF502080F31188BFF38F
:1053A0004F8FBFF36F8F00BF00BFFEE704F11800FF
:1053B000FEF70AFF15480068A8B9201DFEF704FF94
:1053C00094F82C10012088401149096808431049BD
:1053D0000860E16A01EB81010E4A02EB8100211DA8
:1053E000FEF744FF04E004F118010B48FEF73EFF0E
:1053F0000A49E06A0968C96A884204D9012501207E
:105400000749086000E00025284670BD5C000020C8
:105410003C000020900200203805002024000020DD
:105420004800002070B5002400263648006850B9B6
:1054300000BF502080F31188BFF34F8FBFF36F8FF1
:1054400000BF00BFFEE7FEF71DFF2E480068401EAC
:105450002C4908600846006800284FD12A48006897
:1054600000284BD024E02948C068C46804F1180023
:10547000FEF7AAFE201DFEF7A7FE94F82C100120CF
:10548000884023490968084321490860E16A01EB23
:105490008101204A02EB8100211DFEF7E7FE1E4933
:1054A000E06A0968C96A884202D301201B49086082
:1054B0001648006808B9012000E000200028D2D07A
:1054C0000CB1FEF70DFC1648056865B100BFFFF78B
:1054D00055FE10B10120114908606D1E002DF6D156
:1054E00000200F4908600D48006838B101263007D8
:1054F0000C490860BFF34F8FBFF36F8FFEF7ECFED0
:10550000304670BD5C0000203400002038050020CB
:105510003C000020900200202400002048000020D1
:105520004400002004ED00E01CB50024FEF760F804
:105530000D48006850B10D4802210023CA01CDE991
:1055400000100BA10C48FFF7D3FD044654B900BF6F
:10555000502080F31188BFF34F8FBFF36F8F00BFD0
:1055600000BFFEE720461CBD680000206C00002044
:10557000546D722053766300393E00082DE9FE43D6
:1055800004460D4616461F46DDF828804FF00009F8
:1055900054B900BF502080F31188BFF34F8FBFF381
:1055A0006F8F00BF00BFFEE71448006810B300957E
:1055B00001960294062D15DAFFF7CAFD022808D1DC
:1055C0000023424669460D480068FFF7E3FB814629
:1055D00010E000231A46694608480068FFF7DAFB26
:1055E000814607E000233A46694604480068FFF711
:1055F000B5FC81464846BDE8FE83000068000020F7
:105600006B00016C00021900031A02041B10061C37
:1056100000071D00081F0F0D244D09370205380132
:105620000B67010C69C00D6A300AFF005EBCE261C5
:105630003FDD83C29C7E20A3FD1F419DC3217FFCD3
:10564000A2401E5F01E3BD3E6082DC237D9FC1421C
:105650001CFEA0E1BF5D0380DE3C62BEE0025CDFB9
:1056600081633D7C22C09E1D43A1FF4618FAA427FA
:10567000799BC584DA3866E5BB5907DB856739BA9B
:10568000E406581947A5FB7826C49A653BD98704D8
:105690005AB8E6A7F91B45C6987A24F8A6441A9981
:1056A000C7257B3A6486D85B05E7B98CD2306EEDAE
:1056B000B3510F4E10F2AC2F7193CD114FADF3706B
:1056C0002ECC92D38D6F31B2EC0E50AFF1134DCE84
:1056D00090722C6D33D18F0C52B0EE326C8ED05351
:1056E0000DEFB1F0AE4C1291CF2D73CA947628AB6A
:1056F000F517490856B4EA6937D58B5709EBB53623
:10570000688AD495CB2977F4AA4816E9B7550B884F
:10571000D6346A2B7597C94A14F6A8742AC8961508
:105720004BA9F7B6E80A54D7896B350000008911F8
:1057300012239B322446AD573665BF74488CC19DF9
:105740005AAFD3BE6CCAE5DB7EE9F7F881100801D9
:1057500093331A22A5562C47B7753E64C99C408DD9
:10576000DBBF52AEEDDA64CBFFF976E802218B3075
:10577000100299132667AF763444BD554AADC3BCB9
:10578000588ED19F6EEBE7FA7CC8F5D983310A2099
:1057900091121803A7772E66B5543C45CBBD42AC99
:1057A000D99E508FEFFB66EAFDD874C904428D5331
:1057B00016619F702004A9153227BB364CCEC5DF79
:1057C0005EEDD7FC6888E1997AABF3BA85520C4359
:1057D00097711E60A1142805B3373A26CDDE44CF59
:1057E000DFFD56ECE9986089FBBB72AA06638F72F5
:1057F00014409D512225AB343006B9174EEFC7FE39
:105800005CCCD5DD6AA9E3B8788AF19B87730E6218
:1058100095501C41A3352A24B1163807CFFF46EE18
:10582000DDDC54CDEBB962A8F99A708B08848195C0
:105830001AA793B62CC2A5D33EE1B7F04008C91908
:10584000522BDB3A644EED5F766DFF7C89940085C8
:105850009BB712A6ADD224C3BFF136E0C1184809E8
:10586000D33B5A2AE55E6C4FF77D7E6C0AA583B464
:10587000188691972EE3A7F23CC0B5D14229CB38C8
:10588000500AD91B666FEF7E744CFD5D8BB502A488
:1058900099961087AFF326E2BDD034C1C3394A28A8
:1058A000D11A580BE77F6E6EF55C7C4D0CC685D720
:1058B0001EE597F42880A1913AA3B3B2444ACD5B88
:1058C0005669DF78600CE91D722FFB3E8DD604C748
:1058D0009FF516E4A9902081BBB332A2C55A4C4B68
:1058E000D7795E68E11C680DF33F7A2E0EE787F6E4
:1058F0001CC495D52AA1A3B03882B193466BCF7A48
:105900005448DD59622DEB3C700EF91F8FF706E607
:105910009DD414C5ABB122A0B9923083C77B4E6A27
:10592000D5585C49E33D6A2CF11E780F4C590008AC
:10593000000000205002000018030008FC59000875
:105940005002002068100200682C0008118495BAEB
:105950000A680901020304060708090CA91001647A
:105960001AAA010128420444BB01DD1202878813F0
:105970006009F40123A00F200DCDCCAC40E71DA79A
:105980003B99BB963A13FA441C60EA451A42403DE3
:105990000AD7A33B14111AFA143A6014614B7A45E2
:1059A00028517950916008C05A463333B33F1940AB
:1059B0004808409C465839343C541A23081A804CF5
:1059C0001320414FC0DA456666C6581410EF454CA7
:1059D00080BB4620C1498C81033CFFFF5A80940B59
:1059E0001980BF1C091D246920E938E9104FC844FB
:0C59F000CDCC4C3E13138945C4A08C455F
:04000005080001AD41
:00000001FF
